{
  "_format": "hh-sol-artifact-1",
  "contractName": "JavaBeanAnalyzer",
  "sourceName": "contracts/JavabeanAnalyzer.sol",
  "abi": [
    {
      "inputs": [],
      "stateMutability": "nonpayable",
      "type": "constructor"
    },
    {
      "anonymous": false,
      "inputs": [
        {
          "indexed": false,
          "internalType": "string",
          "name": "operation",
          "type": "string"
        },
        {
          "indexed": false,
          "internalType": "uint256",
          "name": "gasUsed",
          "type": "uint256"
        },
        {
          "indexed": false,
          "internalType": "uint256",
          "name": "timestamp",
          "type": "uint256"
        }
      ],
      "name": "GasUsageRecords",
      "type": "event"
    },
    {
      "anonymous": false,
      "inputs": [
        {
          "indexed": true,
          "internalType": "address",
          "name": "previousOwner",
          "type": "address"
        },
        {
          "indexed": true,
          "internalType": "address",
          "name": "newOwner",
          "type": "address"
        }
      ],
      "name": "OwnershipTransferred",
      "type": "event"
    },
    {
      "inputs": [
        {
          "internalType": "string",
          "name": "operation",
          "type": "string"
        }
      ],
      "name": "getGasInfo",
      "outputs": [
        {
          "internalType": "uint256",
          "name": "totalGas",
          "type": "uint256"
        },
        {
          "internalType": "uint256",
          "name": "calls",
          "type": "uint256"
        },
        {
          "internalType": "uint256",
          "name": "avgGas",
          "type": "uint256"
        },
        {
          "internalType": "uint256",
          "name": "minGas",
          "type": "uint256"
        },
        {
          "internalType": "uint256",
          "name": "maxGas",
          "type": "uint256"
        }
      ],
      "stateMutability": "view",
      "type": "function"
    },
    {
      "inputs": [
        {
          "internalType": "bytes32",
          "name": "",
          "type": "bytes32"
        }
      ],
      "name": "operationGas",
      "outputs": [
        {
          "internalType": "uint256",
          "name": "totalGas",
          "type": "uint256"
        },
        {
          "internalType": "uint256",
          "name": "calls",
          "type": "uint256"
        },
        {
          "internalType": "uint256",
          "name": "avgGas",
          "type": "uint256"
        },
        {
          "internalType": "uint256",
          "name": "minGas",
          "type": "uint256"
        },
        {
          "internalType": "uint256",
          "name": "maxGas",
          "type": "uint256"
        }
      ],
      "stateMutability": "view",
      "type": "function"
    },
    {
      "inputs": [],
      "name": "owner",
      "outputs": [
        {
          "internalType": "address",
          "name": "",
          "type": "address"
        }
      ],
      "stateMutability": "view",
      "type": "function"
    },
    {
      "inputs": [
        {
          "internalType": "string",
          "name": "operation",
          "type": "string"
        },
        {
          "internalType": "uint256",
          "name": "gasUsed",
          "type": "uint256"
        }
      ],
      "name": "recordGasUsage",
      "outputs": [],
      "stateMutability": "nonpayable",
      "type": "function"
    },
    {
      "inputs": [],
      "name": "renounceOwnership",
      "outputs": [],
      "stateMutability": "nonpayable",
      "type": "function"
    },
    {
      "inputs": [
        {
          "internalType": "address",
          "name": "newOwner",
          "type": "address"
        }
      ],
      "name": "transferOwnership",
      "outputs": [],
      "stateMutability": "nonpayable",
      "type": "function"
    }
  ],
  "bytecode": "0x608060405234801561001057600080fd5b5061001a33610028565b61002333610028565b610078565b600080546001600160a01b038381166001600160a01b0319831681178455604051919092169283917f8be0079c531659141344cd1fd0a4f28419497f9722a3daafe3b4186f6b6457e09190a35050565b61063c806100876000396000f3fe608060405234801561001057600080fd5b50600436106100625760003560e01c8063715018a6146100675780637aff04801461007157806386389f02146100da5780638da5cb5b146100ed578063d2936b6a14610108578063f2fde38b1461011b575b600080fd5b61006f61012e565b005b6100ad61007f3660046103cd565b6001602081905260009182526040909120805491810154600282015460038301546004909301549192909185565b604080519586526020860194909452928401919091526060830152608082015260a0015b60405180910390f35b6100ad6100e8366004610489565b610142565b6000546040516001600160a01b0390911681526020016100d1565b61006f6101163660046104c6565b6101a9565b61006f61012936600461050b565b6102a5565b610136610323565b610140600061037d565b565b6000806000806000808660405160200161015c919061055f565b60408051808303601f19018152918152815160209283012060009081526001928390522080549181015460028201546003830154600490930154939b919a50985090965090945092505050565b6000826040516020016101bc919061055f565b60408051601f1981840301815291815281516020928301206000818152600193849052919091209182015490925015806101f95750806003015483105b1561020657600381018390555b806004015483111561021a57600481018390555b8281600001600082825461022e919061057b565b90915550506001818101805460009061024890849061057b565b90915550506001810154815461025e91906105a2565b60028201556040517f6187d46163bae2bc312e4e75fba6588489750e56721bb5b334c075f9bbabe7c790610297908690869042906105c4565b60405180910390a150505050565b6102ad610323565b6001600160a01b0381166103175760405162461bcd60e51b815260206004820152602660248201527f4f776e61626c653a206e6577206f776e657220697320746865207a65726f206160448201526564647265737360d01b60648201526084015b60405180910390fd5b6103208161037d565b50565b6000546001600160a01b031633146101405760405162461bcd60e51b815260206004820181905260248201527f4f776e61626c653a2063616c6c6572206973206e6f7420746865206f776e6572604482015260640161030e565b600080546001600160a01b038381166001600160a01b0319831681178455604051919092169283917f8be0079c531659141344cd1fd0a4f28419497f9722a3daafe3b4186f6b6457e09190a35050565b6000602082840312156103df57600080fd5b5035919050565b634e487b7160e01b600052604160045260246000fd5b600082601f83011261040d57600080fd5b813567ffffffffffffffff80821115610428576104286103e6565b604051601f8301601f19908116603f01168101908282118183101715610450576104506103e6565b8160405283815286602085880101111561046957600080fd5b836020870160208301376000602085830101528094505050505092915050565b60006020828403121561049b57600080fd5b813567ffffffffffffffff8111156104b257600080fd5b6104be848285016103fc565b949350505050565b600080604083850312156104d957600080fd5b823567ffffffffffffffff8111156104f057600080fd5b6104fc858286016103fc565b95602094909401359450505050565b60006020828403121561051d57600080fd5b81356001600160a01b038116811461053457600080fd5b9392505050565b60005b8381101561055657818101518382015260200161053e565b50506000910152565b6000825161057181846020870161053b565b9190910192915050565b8082018082111561059c57634e487b7160e01b600052601160045260246000fd5b92915050565b6000826105bf57634e487b7160e01b600052601260045260246000fd5b500490565b60608152600084518060608401526105e381608085016020890161053b565b60208301949094525060408101919091526080601f909201601f1916010191905056fea2646970667358221220edac2f10b4b83cc99fbea80eea2e6936d63fabac899cd5574c1bd26c705a7a0264736f6c63430008140033",
  "linkReferences": {},
  "deployedLinkReferences": {}
}