{
  "_format": "hh-sol-artifact-1",
  "contractName": "JavaBean",
  "sourceName": "contracts/Javabean.sol",
  "abi": [
    {
      "inputs": [],
      "stateMutability": "nonpayable",
      "type": "constructor"
    },
    {
      "anonymous": false,
      "inputs": [
        {
          "indexed": true,
          "internalType": "address",
          "name": "owner",
          "type": "address"
        },
        {
          "indexed": true,
          "internalType": "address",
          "name": "spender",
          "type": "address"
        },
        {
          "indexed": false,
          "internalType": "uint256",
          "name": "value",
          "type": "uint256"
        }
      ],
      "name": "Approval",
      "type": "event"
    },
    {
      "anonymous": false,
      "inputs": [
        {
          "indexed": true,
          "internalType": "address",
          "name": "user",
          "type": "address"
        },
        {
          "indexed": false,
          "internalType": "uint256",
          "name": "timestamp",
          "type": "uint256"
        }
      ],
      "name": "CooldownTriggered",
      "type": "event"
    },
    {
      "anonymous": false,
      "inputs": [
        {
          "indexed": true,
          "internalType": "address",
          "name": "previousOwner",
          "type": "address"
        },
        {
          "indexed": true,
          "internalType": "address",
          "name": "newOwner",
          "type": "address"
        }
      ],
      "name": "OwnershipTransferred",
      "type": "event"
    },
    {
      "anonymous": false,
      "inputs": [
        {
          "indexed": false,
          "internalType": "address",
          "name": "account",
          "type": "address"
        }
      ],
      "name": "Paused",
      "type": "event"
    },
    {
      "anonymous": false,
      "inputs": [
        {
          "indexed": false,
          "internalType": "address",
          "name": "token",
          "type": "address"
        },
        {
          "indexed": false,
          "internalType": "uint256",
          "name": "amount",
          "type": "uint256"
        }
      ],
      "name": "TokensRecovered",
      "type": "event"
    },
    {
      "anonymous": false,
      "inputs": [
        {
          "indexed": true,
          "internalType": "address",
          "name": "from",
          "type": "address"
        },
        {
          "indexed": true,
          "internalType": "address",
          "name": "to",
          "type": "address"
        },
        {
          "indexed": false,
          "internalType": "uint256",
          "name": "value",
          "type": "uint256"
        }
      ],
      "name": "Transfer",
      "type": "event"
    },
    {
      "anonymous": false,
      "inputs": [
        {
          "indexed": false,
          "internalType": "address",
          "name": "account",
          "type": "address"
        }
      ],
      "name": "Unpaused",
      "type": "event"
    },
    {
      "anonymous": false,
      "inputs": [
        {
          "indexed": false,
          "internalType": "uint256",
          "name": "newAmount",
          "type": "uint256"
        }
      ],
      "name": "maxTransactionAmountUpdated",
      "type": "event"
    },
    {
      "inputs": [],
      "name": "TRANSFER_COOLDOWN",
      "outputs": [
        {
          "internalType": "uint256",
          "name": "",
          "type": "uint256"
        }
      ],
      "stateMutability": "view",
      "type": "function"
    },
    {
      "inputs": [
        {
          "internalType": "address",
          "name": "owner",
          "type": "address"
        },
        {
          "internalType": "address",
          "name": "spender",
          "type": "address"
        }
      ],
      "name": "allowance",
      "outputs": [
        {
          "internalType": "uint256",
          "name": "",
          "type": "uint256"
        }
      ],
      "stateMutability": "view",
      "type": "function"
    },
    {
      "inputs": [],
      "name": "analyzer",
      "outputs": [
        {
          "internalType": "contract IJavaBeanAnalyzer",
          "name": "",
          "type": "address"
        }
      ],
      "stateMutability": "view",
      "type": "function"
    },
    {
      "inputs": [
        {
          "internalType": "address",
          "name": "spender",
          "type": "address"
        },
        {
          "internalType": "uint256",
          "name": "amount",
          "type": "uint256"
        }
      ],
      "name": "approve",
      "outputs": [
        {
          "internalType": "bool",
          "name": "",
          "type": "bool"
        }
      ],
      "stateMutability": "nonpayable",
      "type": "function"
    },
    {
      "inputs": [
        {
          "internalType": "address",
          "name": "account",
          "type": "address"
        }
      ],
      "name": "balanceOf",
      "outputs": [
        {
          "internalType": "uint256",
          "name": "",
          "type": "uint256"
        }
      ],
      "stateMutability": "view",
      "type": "function"
    },
    {
      "inputs": [],
      "name": "decimals",
      "outputs": [
        {
          "internalType": "uint8",
          "name": "",
          "type": "uint8"
        }
      ],
      "stateMutability": "view",
      "type": "function"
    },
    {
      "inputs": [
        {
          "internalType": "address",
          "name": "spender",
          "type": "address"
        },
        {
          "internalType": "uint256",
          "name": "subtractedValue",
          "type": "uint256"
        }
      ],
      "name": "decreaseAllowance",
      "outputs": [
        {
          "internalType": "bool",
          "name": "",
          "type": "bool"
        }
      ],
      "stateMutability": "nonpayable",
      "type": "function"
    },
    {
      "inputs": [
        {
          "internalType": "address",
          "name": "spender",
          "type": "address"
        },
        {
          "internalType": "uint256",
          "name": "addedValue",
          "type": "uint256"
        }
      ],
      "name": "increaseAllowance",
      "outputs": [
        {
          "internalType": "bool",
          "name": "",
          "type": "bool"
        }
      ],
      "stateMutability": "nonpayable",
      "type": "function"
    },
    {
      "inputs": [],
      "name": "maxTransactionAmount",
      "outputs": [
        {
          "internalType": "uint256",
          "name": "",
          "type": "uint256"
        }
      ],
      "stateMutability": "view",
      "type": "function"
    },
    {
      "inputs": [],
      "name": "name",
      "outputs": [
        {
          "internalType": "string",
          "name": "",
          "type": "string"
        }
      ],
      "stateMutability": "view",
      "type": "function"
    },
    {
      "inputs": [],
      "name": "owner",
      "outputs": [
        {
          "internalType": "address",
          "name": "",
          "type": "address"
        }
      ],
      "stateMutability": "view",
      "type": "function"
    },
    {
      "inputs": [],
      "name": "pause",
      "outputs": [],
      "stateMutability": "nonpayable",
      "type": "function"
    },
    {
      "inputs": [],
      "name": "paused",
      "outputs": [
        {
          "internalType": "bool",
          "name": "",
          "type": "bool"
        }
      ],
      "stateMutability": "view",
      "type": "function"
    },
    {
      "inputs": [
        {
          "internalType": "address",
          "name": "tokenAddress",
          "type": "address"
        },
        {
          "internalType": "uint256",
          "name": "tokenAmount",
          "type": "uint256"
        }
      ],
      "name": "recoverERC20",
      "outputs": [],
      "stateMutability": "nonpayable",
      "type": "function"
    },
    {
      "inputs": [],
      "name": "renounceOwnership",
      "outputs": [],
      "stateMutability": "nonpayable",
      "type": "function"
    },
    {
      "inputs": [
        {
          "internalType": "address",
          "name": "analyzerAddress",
          "type": "address"
        }
      ],
      "name": "setAnalyzer",
      "outputs": [],
      "stateMutability": "nonpayable",
      "type": "function"
    },
    {
      "inputs": [
        {
          "internalType": "uint256",
          "name": "amount",
          "type": "uint256"
        }
      ],
      "name": "setMaxTransactionAmount",
      "outputs": [],
      "stateMutability": "nonpayable",
      "type": "function"
    },
    {
      "inputs": [],
      "name": "symbol",
      "outputs": [
        {
          "internalType": "string",
          "name": "",
          "type": "string"
        }
      ],
      "stateMutability": "view",
      "type": "function"
    },
    {
      "inputs": [],
      "name": "totalSupply",
      "outputs": [
        {
          "internalType": "uint256",
          "name": "",
          "type": "uint256"
        }
      ],
      "stateMutability": "view",
      "type": "function"
    },
    {
      "inputs": [
        {
          "internalType": "address",
          "name": "to",
          "type": "address"
        },
        {
          "internalType": "uint256",
          "name": "amount",
          "type": "uint256"
        }
      ],
      "name": "transfer",
      "outputs": [
        {
          "internalType": "bool",
          "name": "",
          "type": "bool"
        }
      ],
      "stateMutability": "nonpayable",
      "type": "function"
    },
    {
      "inputs": [
        {
          "internalType": "address",
          "name": "from",
          "type": "address"
        },
        {
          "internalType": "address",
          "name": "to",
          "type": "address"
        },
        {
          "internalType": "uint256",
          "name": "amount",
          "type": "uint256"
        }
      ],
      "name": "transferFrom",
      "outputs": [
        {
          "internalType": "bool",
          "name": "",
          "type": "bool"
        }
      ],
      "stateMutability": "nonpayable",
      "type": "function"
    },
    {
      "inputs": [
        {
          "internalType": "address",
          "name": "newOwner",
          "type": "address"
        }
      ],
      "name": "transferOwnership",
      "outputs": [],
      "stateMutability": "nonpayable",
      "type": "function"
    },
    {
      "inputs": [],
      "name": "unpause",
      "outputs": [],
      "stateMutability": "nonpayable",
      "type": "function"
    }
  ],
  "bytecode": "0x60806040523480156200001157600080fd5b50604051806040016040528060088152602001672530bb30a132b0b760c11b815250604051806040016040528060048152602001634a41564160e01b815250816003908162000061919062000538565b50600462000070828262000538565b50506005805460ff19169055506200008833620000d8565b6200009333620000d8565b6000620000a36012600a62000719565b620000b390633b9aca0062000731565b9050620000c1338262000132565b620000ce6064826200074b565b600755506200079a565b600580546001600160a01b03838116610100818102610100600160a81b031985161790945560405193909204169182907f8be0079c531659141344cd1fd0a4f28419497f9722a3daafe3b4186f6b6457e090600090a35050565b6001600160a01b0382166200018e5760405162461bcd60e51b815260206004820152601f60248201527f45524332303a206d696e7420746f20746865207a65726f20616464726573730060448201526064015b60405180910390fd5b6200019c6000838362000207565b8060026000828254620001b091906200076e565b90915550506001600160a01b038216600081815260208181526040808320805486019055518481527fddf252ad1be2c89b69c2b068fc378daa952ba7f163c4a11628f55a4df523b3ef910160405180910390a35050565b620002116200044a565b60005a90506001600160a01b038416158015906200023757506001600160a01b03831615155b15620002a357600754821115620002a35760405162461bcd60e51b815260206004820152602960248201527f4a6176614265616e3a205472616e7366657220616d6f756e742065786365656460448201526873206d6178696d756d60b81b606482015260840162000185565b6001600160a01b0384161562000398576001600160a01b0384166000908152600660205260409020544290620002dc90603c906200076e565b1115620003465760405162461bcd60e51b815260206004820152603160248201527f4a6176614265616e3a20436f6f6c646f776e20706572696f64206163746976656044820152702e20476f6f6420626f797320776169742160781b606482015260840162000185565b6001600160a01b038416600081815260066020908152604091829020429081905591519182527fdd9ec76fd04aab7ee6b385c04a7bdf966620500e72b134bfc3f19654fae20f25910160405180910390a25b60005a620003a7908362000784565b6008549091506001600160a01b0316156200043e576008805460408051636949b5b560e11b815260048101919091526044810192909252673a3930b739b332b960c11b6064830152602482018390526001600160a01b03169063d2936b6a90608401600060405180830381600087803b1580156200042457600080fd5b505af115801562000439573d6000803e3d6000fd5b505050505b5050505050565b505050565b60055460ff1615620004925760405162461bcd60e51b815260206004820152601060248201526f14185d5cd8589b194e881c185d5cd95960821b604482015260640162000185565b565b634e487b7160e01b600052604160045260246000fd5b600181811c90821680620004bf57607f821691505b602082108103620004e057634e487b7160e01b600052602260045260246000fd5b50919050565b601f8211156200044557600081815260208120601f850160051c810160208610156200050f5750805b601f850160051c820191505b8181101562000530578281556001016200051b565b505050505050565b81516001600160401b0381111562000554576200055462000494565b6200056c81620005658454620004aa565b84620004e6565b602080601f831160018114620005a457600084156200058b5750858301515b600019600386901b1c1916600185901b17855562000530565b600085815260208120601f198616915b82811015620005d557888601518255948401946001909101908401620005b4565b5085821015620005f45787850151600019600388901b60f8161c191681555b5050505050600190811b01905550565b634e487b7160e01b600052601160045260246000fd5b600181815b808511156200065b5781600019048211156200063f576200063f62000604565b808516156200064d57918102915b93841c93908002906200061f565b509250929050565b600082620006745750600162000713565b81620006835750600062000713565b81600181146200069c5760028114620006a757620006c7565b600191505062000713565b60ff841115620006bb57620006bb62000604565b50506001821b62000713565b5060208310610133831016604e8410600b8410161715620006ec575081810a62000713565b620006f883836200061a565b80600019048211156200070f576200070f62000604565b0290505b92915050565b60006200072a60ff84168362000663565b9392505050565b808202811582820484141762000713576200071362000604565b6000826200076957634e487b7160e01b600052601260045260246000fd5b500490565b8082018082111562000713576200071362000604565b8181038181111562000713576200071362000604565b61115480620007aa6000396000f3fe608060405234801561001057600080fd5b506004361061014d5760003560e01c806370a08231116100c357806395d89b411161007c57806395d89b41146102aa578063a457c2d7146102b2578063a9059cbb146102c5578063c8c8ebe4146102d8578063dd62ed3e146102e1578063f2fde38b146102f457600080fd5b806370a0823114610240578063715018a6146102695780637a4a3412146102715780638456cb59146102795780638980f11f146102815780638da5cb5b1461029457600080fd5b8063313ce56711610115578063313ce567146101cd57806339509351146101dc5780633f4ba83a146101ef5780635aa8b895146101f75780635c975abb146102225780635d0833371461022d57600080fd5b806306fdde0314610152578063095ea7b31461017057806318160ddd146101935780631e293c10146101a557806323b872dd146101ba575b600080fd5b61015a610307565b6040516101679190610f48565b60405180910390f35b61018361017e366004610fb2565b610399565b6040519015158152602001610167565b6002545b604051908152602001610167565b6101b86101b3366004610fdc565b6103b3565b005b6101836101c8366004610ff5565b6104c5565b60405160128152602001610167565b6101836101ea366004610fb2565b6104e9565b6101b861050b565b60085461020a906001600160a01b031681565b6040516001600160a01b039091168152602001610167565b60055460ff16610183565b6101b861023b366004611031565b61051d565b61019761024e366004611031565b6001600160a01b031660009081526020819052604090205490565b6101b8610547565b610197603c81565b6101b8610559565b6101b861028f366004610fb2565b610569565b60055461010090046001600160a01b031661020a565b61015a6106b9565b6101836102c0366004610fb2565b6106c8565b6101836102d3366004610fb2565b610743565b61019760075481565b6101976102ef366004611053565b610751565b6101b8610302366004611031565b61077c565b60606003805461031690611086565b80601f016020809104026020016040519081016040528092919081815260200182805461034290611086565b801561038f5780601f106103645761010080835404028352916020019161038f565b820191906000526020600020905b81548152906001019060200180831161037257829003601f168201915b5050505050905090565b6000336103a78185856107f5565b60019150505b92915050565b6103bb610919565b600081116104205760405162461bcd60e51b815260206004820152602760248201527f4a6176614265616e3a20416d6f756e74206d75737420626520677265617465726044820152660207468616e20360cc1b60648201526084015b60405180910390fd5b60025481111561048a5760405162461bcd60e51b815260206004820152602f60248201527f4a6176614265616e3a20416d6f756e74206d757374206265206c65737320746860448201526e616e20746f74616c20737570706c7960881b6064820152608401610417565b60078190556040518181527f5b45eea0b0753830b950a2aa6d48ca46cd73342a551d21ac7cff4c58225dcc5e9060200160405180910390a150565b6000336104d3858285610979565b6104de8585856109f3565b506001949350505050565b6000336103a78185856104fc8383610751565b61050691906110d6565b6107f5565b610513610919565b61051b610ba2565b565b610525610919565b600880546001600160a01b0319166001600160a01b0392909216919091179055565b61054f610919565b61051b6000610bf4565b610561610919565b61051b610c4e565b610571610919565b306001600160a01b038316036105da5760405162461bcd60e51b815260206004820152602860248201527f4a6176614265616e3a2043616e6e6f74207265636f766572204a6176614265616044820152676e20746f6b656e7360c01b6064820152608401610417565b816001600160a01b031663a9059cbb6106016005546001600160a01b036101009091041690565b6040516001600160e01b031960e084901b1681526001600160a01b039091166004820152602481018490526044016020604051808303816000875af115801561064e573d6000803e3d6000fd5b505050506040513d601f19601f8201168201806040525081019061067291906110e9565b50604080516001600160a01b0384168152602081018390527f46d2e6e71fc567877b817ff3d940571f989d4ee4d40f2b70806d36e738feef6f910160405180910390a15050565b60606004805461031690611086565b600033816106d68286610751565b9050838110156107365760405162461bcd60e51b815260206004820152602560248201527f45524332303a2064656372656173656420616c6c6f77616e63652062656c6f77604482015264207a65726f60d81b6064820152608401610417565b6104de82868684036107f5565b6000336103a78185856109f3565b6001600160a01b03918216600090815260016020908152604080832093909416825291909152205490565b610784610919565b6001600160a01b0381166107e95760405162461bcd60e51b815260206004820152602660248201527f4f776e61626c653a206e6577206f776e657220697320746865207a65726f206160448201526564647265737360d01b6064820152608401610417565b6107f281610bf4565b50565b6001600160a01b0383166108575760405162461bcd60e51b8152602060048201526024808201527f45524332303a20617070726f76652066726f6d20746865207a65726f206164646044820152637265737360e01b6064820152608401610417565b6001600160a01b0382166108b85760405162461bcd60e51b815260206004820152602260248201527f45524332303a20617070726f766520746f20746865207a65726f206164647265604482015261737360f01b6064820152608401610417565b6001600160a01b0383811660008181526001602090815260408083209487168084529482529182902085905590518481527f8c5be1e5ebec7d5bd14f71427d1e84f3dd0314c0f7b2291e5b200ac8c7c3b925910160405180910390a3505050565b6005546001600160a01b0361010090910416331461051b5760405162461bcd60e51b815260206004820181905260248201527f4f776e61626c653a2063616c6c6572206973206e6f7420746865206f776e65726044820152606401610417565b60006109858484610751565b905060001981146109ed57818110156109e05760405162461bcd60e51b815260206004820152601d60248201527f45524332303a20696e73756666696369656e7420616c6c6f77616e63650000006044820152606401610417565b6109ed84848484036107f5565b50505050565b6001600160a01b038316610a575760405162461bcd60e51b815260206004820152602560248201527f45524332303a207472616e736665722066726f6d20746865207a65726f206164604482015264647265737360d81b6064820152608401610417565b6001600160a01b038216610ab95760405162461bcd60e51b815260206004820152602360248201527f45524332303a207472616e7366657220746f20746865207a65726f206164647260448201526265737360e81b6064820152608401610417565b610ac4838383610c8b565b6001600160a01b03831660009081526020819052604090205481811015610b3c5760405162461bcd60e51b815260206004820152602660248201527f45524332303a207472616e7366657220616d6f756e7420657863656564732062604482015265616c616e636560d01b6064820152608401610417565b6001600160a01b03848116600081815260208181526040808320878703905593871680835291849020805487019055925185815290927fddf252ad1be2c89b69c2b068fc378daa952ba7f163c4a11628f55a4df523b3ef910160405180910390a36109ed565b610baa610eb9565b6005805460ff191690557f5db9ee0a495bf2e6ff9c91a7834c1ba4fdd244a5e8aa4e537bd38aeae4b073aa335b6040516001600160a01b03909116815260200160405180910390a1565b600580546001600160a01b03838116610100818102610100600160a81b031985161790945560405193909204169182907f8be0079c531659141344cd1fd0a4f28419497f9722a3daafe3b4186f6b6457e090600090a35050565b610c56610f02565b6005805460ff191660011790557f62e78cea01bee320cd4e420270b5ea74000d11b0c9f74754ebdbfc544b05a258610bd73390565b610c93610f02565b60005a90506001600160a01b03841615801590610cb857506001600160a01b03831615155b15610d2157600754821115610d215760405162461bcd60e51b815260206004820152602960248201527f4a6176614265616e3a205472616e7366657220616d6f756e742065786365656460448201526873206d6178696d756d60b81b6064820152608401610417565b6001600160a01b03841615610e11576001600160a01b0384166000908152600660205260409020544290610d5790603c906110d6565b1115610dbf5760405162461bcd60e51b815260206004820152603160248201527f4a6176614265616e3a20436f6f6c646f776e20706572696f64206163746976656044820152702e20476f6f6420626f797320776169742160781b6064820152608401610417565b6001600160a01b038416600081815260066020908152604091829020429081905591519182527fdd9ec76fd04aab7ee6b385c04a7bdf966620500e72b134bfc3f19654fae20f25910160405180910390a25b60005a610e1e908361110b565b6008549091506001600160a01b031615610eb2576008805460408051636949b5b560e11b815260048101919091526044810192909252673a3930b739b332b960c11b6064830152602482018390526001600160a01b03169063d2936b6a90608401600060405180830381600087803b158015610e9957600080fd5b505af1158015610ead573d6000803e3d6000fd5b505050505b5050505050565b60055460ff1661051b5760405162461bcd60e51b815260206004820152601460248201527314185d5cd8589b194e881b9bdd081c185d5cd95960621b6044820152606401610417565b60055460ff161561051b5760405162461bcd60e51b815260206004820152601060248201526f14185d5cd8589b194e881c185d5cd95960821b6044820152606401610417565b600060208083528351808285015260005b81811015610f7557858101830151858201604001528201610f59565b506000604082860101526040601f19601f8301168501019250505092915050565b80356001600160a01b0381168114610fad57600080fd5b919050565b60008060408385031215610fc557600080fd5b610fce83610f96565b946020939093013593505050565b600060208284031215610fee57600080fd5b5035919050565b60008060006060848603121561100a57600080fd5b61101384610f96565b925061102160208501610f96565b9150604084013590509250925092565b60006020828403121561104357600080fd5b61104c82610f96565b9392505050565b6000806040838503121561106657600080fd5b61106f83610f96565b915061107d60208401610f96565b90509250929050565b600181811c9082168061109a57607f821691505b6020821081036110ba57634e487b7160e01b600052602260045260246000fd5b50919050565b634e487b7160e01b600052601160045260246000fd5b808201808211156103ad576103ad6110c0565b6000602082840312156110fb57600080fd5b8151801515811461104c57600080fd5b818103818111156103ad576103ad6110c056fea2646970667358221220bc1c24206daa97a6016edd96506c248ef7fcec3075dc0cf507fb5ca6896c122d64736f6c63430008140033",
  "linkReferences": {},
  "deployedLinkReferences": {}
}